:2000000060140020A1010000A9010000AB0100000000000000000000000000000000000054
:20002000000000000000000000000000AD0100000000000000000000AF010000B1010000B0
:20004000B3010000B3010000B3010000B3010000B3010000B3010000B3010000B301000000
:20006000B3010000B3010000B3010000B3010000B3010000B3010000B3010000B3010000E0
:20008000B3010000B3010000B3010000B3010000B3010000B3010000B3010000B3010000C0
:2000A000B3010000B3010000B3010000B3010000B3010000B3010000B3010000B3010000A0
:2000C00000F002F800F040F80CA030C8083824182D18A246671EAB4654465D46AC4201D14E
:2000E00000F032F87E460F3E0FCCB6460126334200D0FB1AA246AB4633431847840C00003F
:20010000A40C0000103A02D378C878C1FAD8520701D330C830C101D504680C60704700004A
:200120000023002400250026103A01D378C1FBD8520700D330C100D50B6070471FB5C04615
:20014000C0461FBD10B510BD00F0DBF81146FFF7F5FF00F057FC00F04AF803B4FFF7F2FF14
:2001600003BC00F0F1F8000070B505460C46164602E00FCC0FC5103E102EFAD2082E02D3D5
:2001800003CC03C5083E042E07D301CC01C5361F03E021782970641C6D1C761EF9D270BDE4
:2001A0000A4880470A480047FEE7FEE7FEE7FEE7FEE7FEE7074800688546074800680047AF
:2001C00006480749054A074B70470000FD010000C1000000001800000418000060100020A6
:2001E00060140020601000207047704770470446C046C0462046FFF7B0FF704770470000E7
:200200000000010000000000000000000000000000000000000000000000000000000000DD
:200220000000000000000000000000000000000000000000000000000000000000000000BE
:2002400000000000000000000000000000000000000000000000000000000000000000009E
:2002600000000000000000000000000000000000000000000000000000000000000000007E
:20028000F8B5042A2CD3830712D00B78491C0370401C521E83070BD00B78491C0370401CD5
:2002A000521E830704D00B78491C0370401C521E8B079B0F05D0C91ADF002023DE1B08C969
:2002C0000AE0FFF751FFF8BD1D4608C9FD401C46B4402C4310C0121F042AF5D2F308C91A2F
:2002E000521EF0D40B78491C0370401C521EEAD40B78491C0370401C521EE4D40978017014
:20030000F8BD754600F01CF8AE46050069465346C008C000854618B020B5FFF751FF60BCD6
:2003200000274908B6460026C0C5C0C5C0C5C0C5C0C5C0C5C0C5C0C5403D49008D467047AB
:20034000004870470010002001491820ABBEFEE726000200034910B52822491E0248FFF774
:200360008FFF10BD8D0300004400002010B505497020087000F014F80348804700F020F8FD
:2003800010BD0000000002404500002003488021017001780906FCD570470000000002403A
:2003A00005480168002904D1044A1368436000231360491C016070473000002000E100E0F9
:2003C00005480168002905D0491E016002D1034940680860704700003000002000E100E0AA
:2003E000024855214160AA21416070470081044000000000000000000000000000000000B4
:20040000FFFFFFFFFFFFFFFFFFFFFFFFFEF3FFFFF7B582B00C0006464AD0274F2748009034
:20042000049801780D46417809020D438178C07809040D4300060543042C05D2E10001205B
:200440008840401EC0430543032040063043BD60786070203870FFF7A3FF00988047FFF735
:20046000AFFF38787121084202D0022005B0F0BD012040063043786001200006FD60B8609E
:2004800070203870FFF78CFF00988047FFF798FF38787121084202D0032005B0F0BD042CA4
:2004A00006D90498241F001D361D0490002CB7D1002005B0F0BD000000000240450000209D
:2004C00070B5002382781946C02A07D0C12A31D0C51CC22A3FD0C32A7ED1A2E042780478FE
:2004E00010022043052877D1674802786748002A10D0674A12680271130A4371130C8371AE
:20050000120EC27101720A0A42720A0C8272090EC1720DE001710A0A42710A0C82710A0EB2
:20052000C27101720A0A42720A0C8272090EC172564BA7E0427804781002204306284BD1DC
:20054000544801604160BFF34F8F54495248C860BFF34F8FFEE742780478100220431128B5
:200560003AD12B78EA7818466B7812061B021843AB7870261B0418431043494A494C90421A
:2005800006D12670A1604848E1606060FFF7EEFE26702A78E97810466A7809061202104333
:2005A000AA7812041043084360602A79E97910466A79090612021043AA791204104308431A
:2005C000A060082029180A7810464A78120210438A781204104300E054E0C9780906084397
:2005E000E060FFF7C3FE2078304908712F48616841710A0A82710A0CC271090E0172A168A5
:2006000041720A0A82720A0CC272090E0173E16841730A0A82730A0CC273090E0174034624
:2006200030E04178024600780C020443117AD079090201430E460B318C4223D12B78E97863
:2006400018466B7809061B021843AB78184C1B04184308430521890288420CD3093231467A
:20066000FFF7D6FE2071010A6171010CA171000EE071234606E00420207100216171A171BB
:200680000B4BE171184670BD00000020010000208C27000000F8FF1F0400FA0500ED00E04D
:2006A000001800090000024000100009100000202300002030B41E4C1C4A1E4BA1420DD965
:2006C00000292FD00578140A6C4064001C5B12025440401CA2B2491EF4D123E0002921DD22
:2006E000CC0709D00478FF22624052009A5AFF242402624092B2401C491013D0140A057867
:2007000012026C4064001C5B401C5440A2B20578140A6C4064001C5B12025440401CA2B280
:20072000491EEBD130BC104670470000FFFF0000FFFFFF7F800B000029490D20086029491F
:2007400000200860294828494161016901221143016127489C21417098210170817981794F
:20076000C906FCD481790907890F0229FAD1017949094901C91C01714179402211434171B3
:20078000417949094901417181798906FCD581794906FCD5174A516807231B0419400123FD
:2007A0001B041943516001788906890E017081790907890F0329FAD10F4801788023194395
:2007C00001700E48816B1F235B0219438163C16B02231943C1631068D901084310607047F2
:2007E0000081044030000020FFFFFF0000E000E00040064040800440005006400080044043
:20080000F0B55749CDB04869564F7860BA6890427ED0B8605448886105A802304B905348B4
:20082000CE148519FFF7DCFD796838680A1A884200D99219042A6BD341780378090219436F
:20084000FF240B1F0E34A34204D3401C3860A842E8D325E08A425BD3002406AA00290ED0DA
:2008600003781370022901D903781C19521C401CA84200D3801B491E0904090CF0D13A48D7
:200880004B9944406846008B42185178127809021143A14207D03868401C3860A842C1D3DF
:2008A000801B3860BEE7396840183860A84201D3801B386006A8FFF703FE029000281DD092
:2008C000817842780802104300240390022813D002980399401EC90701D0401C047803999B
:2008E0000022891E490806D04378801C1C1903789A18491EF8D1A418FFF772FD039A0299C6
:20090000E043891810398873000AC873039800E023E00190124881680902FCD11048806820
:20092000C00105D50E48816801221206114381600F4C20798009032805D0FFF751FD207913
:2009400080090328F9D106480299016001998160C168084A1143C16064E74DB0F0BD00006F
:200960000081004038000020FFFF00000008002000C006400000014010B41848164901600D
:20098000416081601648426B01231B031A4342630320144A000210605060134800220270F4
:2009A0000D224270C278AC231A43C270027AA0231A4302720D4A872010700E480C4B4360E0
:2009C0000D4CC46086245470036141610B4981610B49C16110BC7047000800203800002077
:2009E0000080044040D0044000C006400010024007C006400081004080005220FFFF0000C9
:200A000000081A604D49552008700F230A46537000239370C022CA700B7349491D4608705F
:200A200013230A46537000239370C222CA7045490A220870084642708370C320424CC8705B
:200A400021684248424F81420AD16068B84207D12560656003203F49C0028860FFF7AAFB80
:200A6000FFF76AFEFF203C490130086048608860C8603A4948608860C860394841690F228C
:200A8000120491434161426904210A434261026800268A43026031460269120C920704D4DA
:200AA0000269120C520700D40126491CC9B20A29F2D32C48026825498A4231D14168244852
:200AC00081422DD1284F38682849884228D239680320C002FFF7EEFD3A680321C9025218A7
:200AE0005178127809021143884219D1002E13D120681F49884203D160681E4988420BD01C
:200B00001248206012486060BFF34F8F11481A49C160BFF34F8FFEE718480121017001E02B
:200B200016480570FFF716FCFFF726FF25606560FFF766FEFFF754FCFAE7000001000020D3
:200B4000100000202300002000F8FF1FCC5172C8A07E019200ED00E040A0044000A004402F
:200B600040F00F408027000088270000FEE70000C911E81AAC94557F0400FA0500000020A8
:200B800000002110422063308440A550C660E770088129914AA16BB18CC1ADD1CEE1EFF155
:200BA0003112100273325222B5529442F772D662399318837BB35AA3BDD39CC3FFF3DEE315
:200BC0006224433420040114E664C774A44485546AA54BB528850995EEE5CFF5ACC58DD5D5
:200BE0005336722611163006D776F6669556B4465BB77AA719973887DFF7FEE79DD7BCC795
:200C0000C448E5588668A7784008611802282338CCC9EDD98EE9AFF9488969990AA92BB954
:200C2000F55AD44AB77A966A711A500A333A122AFDDBDCCBBFFB9EEB799B588B3BBB1AAB14
:200C4000A66C877CE44CC55C222C033C600C411CAEED8FFDECCDCDDD2AAD0BBD688D499DD4
:200C6000977EB66ED55EF44E133E322E511E700E9FFFBEEFDDDFFCCF1BBF3AAF599F788F94
:200C80008891A981CAB1EBA10CD12DC14EF16FE18010A100C230E320045025404670676054
:200CA000B9839893FBA3DAB33DC31CD37FE35EF3B1029012F322D232354214527762567214
:200CC000EAB5CBA5A89589856EF54FE52CD50DC5E234C324A01481046674476424540544D4
:200CE000DBA7FAB79987B8975FE77EF71DC73CD7D326F2369106B016576676761546345694
:200D00004CD96DC90EF92FE9C899E9898AB9ABA94458654806782768C018E1088238A32853
:200D20007DCB5CDB3FEB1EFBF98BD89BBBAB9ABB754A545A376A167AF10AD01AB32A923A13
:200D40002EFD0FED6CDD4DCDAABD8BADE89DC98D267C076C645C454CA23C832CE01CC10CD3
:200D60001FEF3EFF5DCF7CDF9BAFBABFD98FF89F176E367E554E745E932EB23ED10EF01E93
:200D8000281400000000002044000000040100006C140000440000201C1400002001000079
:200DA000000000000000000000000000000000000000000000000000000000000000000033
:200DC000000000000000000000000000000000000000000000000000000000000000000013
:200DE0000000000000000000000000000000000000000000000000000000000000000000F3
:200E00000000000000000000000000000000000000000000000000000000000000000000D2
:201400005089367763567924438E365C3F156B700E7E1B4C63567924438E365C3F156B7083
:201420000E7E1B4C0100FFFFFFFFFFFFFFFFFFFFFFFFFFFFFFFFFFFFFFFFFFFFFFFFFFFFD2
:20144000FFFFFFFFFFFFFFFFFFFFFFFFFFFFFFFFFFFFFFFFFFFFFFFFFFFFFFFFFFFFFFFFAC
:20146000FFFFFFFFFFFFFFFFFFFFFFFFFFFFFFFFFFFFFFFFFFFFFFFFFFFFFFFFFFFFFFFF8C
:20148000FFFFFFFFFFFFFFFFFFFFFFFFFFFFFFFFFFFFFFFFFFFFFFFFFFFFFFFFFFFFFFFF6C
:2014A000FFFFFFFFFFFFFFFFFFFFFFFFFFFFFFFFFFFFFFFFFFFFFFFFFFFFFFFFFFFFFFFF4C
:2014C000FFFFFFFFFFFFFFFFFFFFFFFFFFFFFFFFFFFFFFFFFFFFFFFFFFFFFFFFFFFFFFFF2C
:2014E000FFFFFFFFFFFFFFFFFFFFFFFFFFFFFFFFFFFFFFFFFFFFFFFFFFFFFFFFFFFFFFFF0C
:20150000FFFFFFFFFFFFFFFFFFFFFFFFFFFFFFFFFFFFFFFFFFFFFFFFFFFFFFFFFFFFFFFFEB
:20152000FFFFFFFFFFFFFFFFFFFFFFFFFFFFFFFFFFFFFFFFFFFFFFFFFFFFFFFFFFFFFFFFCB
:20154000FFFFFFFFFFFFFFFFFFFFFFFFFFFFFFFFFFFFFFFFFFFFFFFFFFFFFFFFFFFFFFFFAB
:20156000FFFFFFFFFFFFFFFFFFFFFFFFFFFFFFFFFFFFFFFFFFFFFFFFFFFFFFFFFFFFFFFF8B
:20158000FFFFFFFFFFFFFFFFFFFFFFFFFFFFFFFFFFFFFFFFFFFFFFFFFFFFFFFFFFFFFFFF6B
:2015A000FFFFFFFFFFFFFFFFFFFFFFFFFFFFFFFFFFFFFFFFFFFFFFFFFFFFFFFFFFFFFFFF4B
:2015C000FFFFFFFFFFFFFFFFFFFFFFFFFFFFFFFFFFFFFFFFFFFFFFFFFFFFFFFFFFFFFFFF2B
:2015E000FFFFFFFFFFFFFFFFFFFFFFFFFFFFFFFFFFFFFFFFFFFFFFFFFFFFFFFFFFFFFFFF0B
:20160000FFFFFFFFFFFFFFFFFFFFFFFFFFFFFFFFFFFFFFFFFFFFFFFFFFFFFFFFFFFFFFFFEA
:20162000FFFFFFFFFFFFFFFFFFFFFFFFFFFFFFFFFFFFFFFFFFFFFFFFFFFFFFFFFFFFFFFFCA
:20164000FFFFFFFFFFFFFFFFFFFFFFFFFFFFFFFFFFFFFFFFFFFFFFFFFFFFFFFFFFFFFFFFAA
:20166000FFFFFFFFFFFFFFFFFFFFFFFFFFFFFFFFFFFFFFFFFFFFFFFFFFFFFFFFFFFFFFFF8A
:20168000FFFFFFFFFFFFFFFFFFFFFFFFFFFFFFFFFFFFFFFFFFFFFFFFFFFFFFFFFFFFFFFF6A
:2016A000FFFFFFFFFFFFFFFFFFFFFFFFFFFFFFFFFFFFFFFFFFFFFFFFFFFFFFFFFFFFFFFF4A
:2016C000FFFFFFFFFFFFFFFFFFFFFFFFFFFFFFFFFFFFFFFFFFFFFFFFFFFFFFFFFFFFFFFF2A
:2016E000FFFFFFFFFFFFFFFFFFFFFFFFFFFFFFFFFFFFFFFFFFFFFFFFFFFFFFFFFFFFFFFF0A
:20170000FFFFFFFFFFFFFFFFFFFFFFFFFFFFFFFFFFFFFFFFFFFFFFFFFFFFFFFFFFFFFFFFE9
:20172000FFFFFFFFFFFFFFFFFFFFFFFFFFFFFFFFFFFFFFFFFFFFFFFFFFFFFFFFFFFFFFFFC9
:20174000FFFFFFFFFFFFFFFFFFFFFFFFFFFFFFFFFFFFFFFFFFFFFFFFFFFFFFFFFFFFFFFFA9
:20176000FFFFFFFFFFFFFFFFFFFFFFFFFFFFFFFFFFFFFFFFFFFFFFFFFFFFFFFFFFFFFFFF89
:20178000FFFFFFFFFFFFFFFFFFFFFFFFFFFFFFFFFFFFFFFFFFFFFFFFFFFFFFFFFFFFFFFF69
:2017A000FFFFFFFFFFFFFFFFFFFFFFFFFFFFFFFFFFFFFFFFFFFFFFFFFFFFFFFFFFFFFFFF49
:2017C000FFFFFFFFFFFFFFFFFFFFFFFFFFFFFFFFFFFFFFFFFFFFFFFFFFFFFFFFFFFFFFFF29
:2017E000FFFFFFFFFFFFFFFFFFFFFFFFFFFFFFFFFFFFFFFFFFFFFFFFFFFFFFFFFFFFFFFF09
:2018000040160020C5190000CD190000CF19000000000000000000000000000000000000A6
:20182000000000000000000000000000D11900000000000000000000D3190000D5190000E4
:20184000D7190000D7190000D7190000D7190000D7190000D7190000D7190000D719000008
:2018600011570000D7190000D7190000D7190000D7190000D7190000D7190000ED21000052
:20188000D7190000A9B60000C9B60000E1B60000D7190000D7190000397A0000D719000060
:2018A000D7190000D7190000D7190000D7190000D7190000D7190000D7190000597A0000C5
:2018C00000F002F800F052F80CA030C8083824182D18A246671EAB4654465D46AC4201D124
:2018E00000F044F87E460F3E0FCCB6460126334200D0FB1AA246AB4633431847D4D50000FC
:2019000014D60000103A02D378C878C1FAD8520701D330C830C101D504680C6070470000F8
:201920000023002400250026103A01D378C1FBD8520700D330C100D50B60704710B5642985
:2019400002D100F0BDF810BD752902D100F0B8F810BD732902D100F001FC10BD002010BD4E
:201960001FB5C046C0461FBD10B510BD00F00EFC1146FFF7F5FF0AF04FFB00F026FC03B4D1
:20198000FFF7F2FF03BC00F02BFC000070B505460C46164602E00FCC0FC5103E102EFAD283
:2019A000082E02D303CC03C5083E042E07D301CC01C5043E03E02178297001340135013E9F
:2019C000F9D270BD0748804707480047FEE7FEE7FEE7FEE7FEE7FEE704480549034A054BCE
:2019E00070470000C5250000C118000040FEFF1F40160020400F00200FB41CB5074B06AA96
:201A00007B4469460090059800F07DFB0020694600F08CFB1CBC08BC04B01847290700009E
:201A200070B5044685690068C10601D5302600E02026C00707D070BD62683046A1689047DD
:201A4000206A01302062013DF6D570BD70B5044685690078C00707D170BD6268A16820205F
:201A60009047206A01302062013DF6D570BD70B50C460546012A05D02878800600D5EA690C
:201A8000002302E0012305E00133934202D2E05C0028F9D1A869E618C01AA861286AC018D1
:201AA00028622846FFF7BCFF04E06A682078A96801349047B442F8D32846FFF7C7FF70BDFA
:201AC000F7B5002575291068009914A611D0C046C046002802DA404211A608E000990968B0
:201AE0008A0701D50FA602E0490704D50EA6012501E0C046C046009F0024243704E000F006
:201B000031FB3031395501340028F8D12B4632462146009800F09AFAFEBD0000000000005D
:201B20002D0000002B00000020000000F3B50446002081B020622046E168884700287DD075
:201B4000252802D06268A16883E0454F00257F442046E16888472028064608DB312E06D288
:201B6000B81920380078002801D00543F0E7A80701D5042085430020E0610746A0612A2E34
:201B80000AD030460AF041FA002827D0303EB80000190090866119E00298BA00121902C8A9
:201BA000916102902046E1688847012F064617D1E06900281FDA202085431CE000980A218E
:201BC0008069484300998019303888612046E168884706460AF019FA0028EFD1012F0AD045
:201BE0002E2E08D12046E16888470646202005430137022FC3DBA069002803DA4042A061C6
:201C000001200543E80701D010208543002E24D030464138192803D80120C00205432036F5
:201C2000204625603146029A1546FFF787FE00280CD0012807D00735E80800E00DE0C00013
:201C40000830029077E70435029574E762683046A1689047206A01306CE7206AFEBD0000BE
:201C6000ECD10000034670B502460B439B070FD10E4CE60100E008C208C91D1B9D433542D6
:201C8000F9D0D9B21170013200290DD01B0AF8E70B78013113700132002B05D00B78013112
:201CA00013700132002BF3D170BD00000101010130B5441C03E00178013000290DD08107EE
:201CC000F9D10B4BDD0104C8D11A91432940FAD0001B0A0603D0033830BD001B30BD0A040C
:201CE00001D0023830BD0902FCD0013830BD000001010101F8B5042A2CD3830712D00B7822
:201D0000013103700130013A83070BD00B78013103700130013A830704D00B780131037033
:201D20000130013A8B079B0F05D0C91ADF002023DE1B08C90AE0FFF729FEF8BD1D4608C967
:201D4000FD401C46B4402C4310C0043A042AF5D2F308C91A013AF0D40B7801310370013048
:201D6000013AEAD40B78013103700130013AE4D409780170F8BD431A70B593421BD2891892
:201D8000801804E00139013A0B78013803709307F8D106E010390B461038103A78CB78C033
:201DA0001038102AF6D203E0043804390B680360043AF9D570BDFFF7E9FD70BDF8B506466C
:201DC00014460843800707D0751AA54219D20819102D13D2311907E03046FFF7CCFFF8BD3F
:201DE0000138013902780A70013CF9D2F8BD471B2A463946FFF77EFF641B3846A542F6D34E
:201E0000011B22463046FFF775FFF8BDD2B210B513029A1813049A1800F00EF810BD01E02C
:201E200004C004390429FBD28B0701D502800230C90700D00270704700290BD0C30702D022
:201E4000027001300139022904D3830702D5028002300239E3E70022EEE70022DFE7002288
:201E600003098B4273D3030A8B4258D3030B8B423CD3030C8B4221D312E003460B437FD4A8
:201E8000002243088B4274D303098B425FD3030A8B4244D3030B8B4228D3030C8B420DD333
:201EA000FF22090212BA030C8B4202D31212090265D0030B8B4219D300E0090AC30B8B42C0
:201EC00001D3CB03C01A5241830B8B4201D38B03C01A5241430B8B4201D34B03C01A52411F
:201EE000030B8B4201D30B03C01A5241C30A8B4201D3CB02C01A5241830A8B4201D38B0255
:201F0000C01A5241430A8B4201D34B02C01A5241030A8B4201D30B02C01A5241CDD2C30919
:201F20008B4201D3CB01C01A524183098B4201D38B01C01A524143098B4201D34B01C01A8E
:201F4000524103098B4201D30B01C01A5241C3088B4201D3CB00C01A524183088B4201D3F8
:201F60008B00C01A524143088B4201D34B00C01A5241411A00D201465241104670475DE074
:201F8000CA0F00D04942031000D34042534000229C4603098B422DD3030A8B4212D3FC2258
:201FA000890112BA030A8B420CD3890192118B4208D3890192118B4204D389013AD0921135
:201FC00000E08909C3098B4201D3CB01C01A524183098B4201D38B01C01A524143098B42AA
:201FE00001D34B01C01A524103098B4201D30B01C01A5241C3088B4201D3CB00C01A52418A
:2020000083088B4201D38B00C01A5241D9D243088B4201D34B00C01A5241411A00D20146D9
:20202000634652415B10104601D34042002B00D54942704763465B1000D3404201B50020CC
:20204000C046C04602BD704770477047FFB504460D4681B0243000902168880604D5102208
:20206000E0699143216000E00120A84201DD471B00E000270498A1697A191018081AA0610C
:202080002078C00602D42046FFF7CAFC002608E003986268A168805D9047206A01300136C8
:2020A000206204988642F3DB2078C0060AD52046FFF7B6FC06E06268A16830209047206AB7
:2020C000013020623846013F0028F4DC07E000986268A168405D9047206A01302062284626
:2020E000013D0028F3DC2046FFF7B0FC2078000602D5022005B0F0BD0120FBE701694A1CD7
:2021000002610878704700B58FB00291002105910549019379440391114604906846FFF725
:2021200005FD0FB000BD0000E5FFFFFF0A68107001320A60704710B54369002B02D0C04685
:20214000C04601E0FFF793FC012010BD1278014624310A7000224A700122ECE71168002218
:20216000D243E8E701468008081A02091018020A1018020C1018C008820012185200891A84
:2021800001E00A3901300A29FBD27047754600F023F8AE46050069465346C008C0008546D9
:2021A00018B020B5FFF718FC60BC00274908B6460026C0C5C0C5C0C5C0C5C0C5C0C5C0C51F
:2021C000C0C5403D49008D4670470446C046C0462046FFF7D4FB000000487047E0FDFF1FAF
:2021E00001491820ABBEFEE726000200F0B41D4801210678034632465B684A4000271A4DA2
:202200001A499C00002E08D02D590E69AD196D08174E072B355107D001E00E692E51072B84
:202220000BD2013343600AE04760027047700A68402082430A60F0BC704747600270012290
:20224000427042681020CB68052A09D00343CB609000084A1058402210430860F0BC70477C
:202260008343F4E764010020200F002000B00340000F002028EA000030B42248C16B012218
:20228000D2061143C163204800228261426142601E498A601E488261C26142630A601D480B
:2022A000342181601621C160026205214162416A802319434162416A0906FCD4416A164B80
:2022C00049060ED41549CC688D6864194D68096869186118C46B0919846B0919490819439A
:2022E000C1620F48C16844050902090A0919C1600C480168194301600B484260027030BCC4
:20230000704700000080044000C0044000B0044040D0044000B003400080000040B0034050
:2023200000E400E000E100E0640100200148407870470000640100200D4A012151701023E9
:202340000C49002802D00020506002E0506805280AD0C8681843C8605068074A8000105819
:202360004022104308607047C8689843F3E700006401002000B0034028EA000070B50646A9
:2023800017480D460024174961430918B14222DB00F0EAF81449096820310A7B01219140E9
:2023A000084200D005350F4810496043301A4118281940782C5D001B48431921002801DA6E
:2023C0000C3800E00C30FFF758FDC8214C4308492018401870BD0134042CD4DB002070BD6B
:2023E00078ECFFFF881300002C00002010270000F0D8FFFFF8B5312636010025642130463C
:2024000007F01CFC01243F237F2230210020009402F02EFC002330224021284802F09AFE94
:20242000002338221C21264802F018FE002338224C21244802F012FE234F3F231B223821AA
:202440001420009402F014FC3F234B2238214420009402F00DFC002D01D0142100E044211F
:2024600038221A4802F09CFB00F0A8F800F062F8182811D017280FD008280DD009280BD0E5
:202480000A2817D0192815D00B28D6D16421384607F0D4FB0020F8BD654007F091FB022833
:2024A000CBD30F21304607F0C9FB0F21002007F0C5FBC2E7002DE9D00120F8BD4CCC000099
:2024C00083CA000074CA00000B020000F8CB000070B5154C05466070144801786806400E6F
:2024E0001038002915D0062804D3012003F0D2FBE069206207F014FFA1690131082900D38B
:2025000000216069814203D00948A2698554A16170BD0628EED307F003FF012003F0BAFB26
:20252000E069206270BD000094F8FF1F80F8FF1FB8F8FF1F10B50A4C6069A169884205D107
:2025400007F0DCFC6069A1698842F9D061690548405C0131082900D30021616110BD0000AD
:2025600094F8FF1FB8F8FF1F014880687047000094F8FF1F10B507F0C1FC054841698269F6
:20258000914201D1FF2010BD02494069085C10BD94F8FF1FB8F8FF1F10B5012006F08CFDA8
:2025A000012010BD024908710120C870704700001401002010B503F095FB10BD10B503F057
:2025C000BDFC10BD70470000000000000000000000000000000000000000000000000000BE
:2025E0000000000000000000000000000000000000000000000000000000000000000000DB
:202600000000000000000000000000000000000000000000000000000000000000000000BA
:2026200000000000000000000000000000000000000000000000000000000000000000009A
:2026400000000000000000000000000000000000000000000000000000000000000000007A
:2026600000000000000000000000000000000000000000000000000000000000000000005A
:2026800000000000000000000000000000000000000000000000000000000000000000003A
:2026A00000000000000000000000000000000000000000000000000000000000000000001A
:2026C0000000000000000000000000000000000000000000000000000000000000000000FA
:2026E0000000000000000000000000000000000000000000000000000000000000000000DA
:202700000000000000000000000000000000000000000000000000000000000000000000B9
:20272000000000000000000000000000000000000000000000000000000000000000000099
:20274000000000000000000000000000000000000000000000000000000000000000000079
:20276000000000000000000000000000000000000000000000000000000000000000000059
:20278000CC5172C8A07E019260E500000A00010000000000000000000000000000000000E1
:2027A000000000000000000000000000000000000000000000000000000000000000000019
:2027C0000000000000000000000000000000000000000000000000000000000000000000F9
:2027E0000000000000000000000000000000000000000000000000000000000000000000D9
:20280000F8B5F148C16801242143C160EF4F0025F8780130C0B2F870042803D3FD70F86951
:202820000130F861EA490A69EA489043020C387883009A407B6801301A43C0B27A603870E3
:20284000042800D33D700A680E20824338782646431C9E400E235E4032430A60002847D120
:20286000F869396A401ADC49884202D9002003F011FADA480069800604D40121786809031B
:2028800008437860D6480069C10704D101227968120411437960D3490969890704D5012290
:2028A0007968520411437960CF49D04AC969914204D901237A689B041A437A60FF22F5327C
:2028C000914204D201227968120511437960C006786803D40121C90408437860BA68904284
:2028E00007D03969022900D3FA607D603D61B860F8BD7D603869013038610228F8D3BC7056
:20290000BB4901250978AD026E0000297ED11106090E7BD0012003F0BDF9F8693862386998
:202920000238A84204D20006000EE1D1012012E0B04205D24106DBD1401B400A023008E049
:202940008106D5D103218902884222D2801B000A04300028CCD03989A64A89B202291AD03E
:2029600001291BD008291CD004291ED020291FD0102920D0802921D04029B9D111680D3165
:2029800000228A5677231018DB43984219DA184626E00820DFE711680A3104E011680A31EA
:2029A000EEE711680B314042EAE711680B31E7E711680C31F7E711680C31E1E711680D31EE
:2029C000F1E7782801DD78200AE0002805D002DD002A02DB04E0002A02DD002002223A6170
:2029E00000228A56824283D00870E1218901002816D00246783215D0782815D014240028F0
:202A000013DA78304043FF224B3200E018E05043FFF733FAFF304B30214607F00FF9F8BDAD
:202A2000C82402E06424ECE76424734A40435043FFF723FA70494018214607F0FFF8F8BDE4
:202A4000FF230133022808D091B2FF22F732A94271D19042F3D11620B3E05C4892B2808914
:202A600081B2002007E00A2808D00B2819D009282CD0082842D0002955D05DE0002904D0FF
:202A8000A94204D1002A04D001E0AA4263D00B20E9E74E494878162801D00A2011E08A2052
:202AA0002AE0002904D0B14204D1002A04D001E0B24250D00C20D6E744484178192903D011
:202AC0000B20FFF705FD46E08B212AE0002903D12746874097423ED0274687408F4201D108
:202AE000002A01D00130BEE738494A78172A01D0C0B2E6E78022104348702CE0002905D0BA
:202B0000994205D1002A05D00920DFE79A4222D00920A8E72D484178182901D00820D0E771
:202B20008821417017E027468740974204D1C0B2FFF7CEFC0FE027E0274687408F4201D163
:202B4000002A03D0013010288DD304E080210843C0B2FFF7BDFC10251C4E80272046F168B9
:202B6000A8400842B16802D0084204D008E0084206D0E8B202E028463843C0B2FFF7A8FCA1
:202B80000135152DEAD9F8BDB14203D19042FAD1192016E0194A1278002AF4D1CA1FFF3AB4
:202BA000FA3A06D19621FFF75AF90029EBD1172007E09942E7D19621FFF751F90029E2D1A1
:202BC0001820FFF785FCF8BD0071034094F8FF1F40F00F40FFFF0F00204E000000F00F40FA
:202BE000C0F00F4080F00F40000F0020D80E0000010000202C0000209302000002000020DE
:202C000070B5FF202D490130486101462C480160811541608160C1602A4841608160C160B6
:202C20002948016001610846284948602848426902218A4342612748426920239A4342616E
:202C400025484269254B1A404261254A53695B085B00536142690E231A4342612148C36BDF
:202C60008A051343C363204803688B43036020481E49016081680323194381601D484169BA
:202C8000FF231B049943891841611B480168521011430160194C00256561A5612570656041
:202CA000A560E56025616570A570012002F0F2FFE0692062E570E56170BD000000900440EF
:202CC00040A0044000A0044000C0044000B0044080F00F4000F00F4040F00F40F1FFF0FF98
:202CE000C0F00F400080044000700340701700000071034000E400E000E100E094F8FF1FF4
:202D0000F0B5002583B02E46814F824CFFF752FC814804F023F80023102254217F4802F005
:202D2000DDFAE06A0023407A10228000C0194038406B5C2102F092F9002320220C2178489B
:202D400002F08CF9E16A292008560422694607F0ABFA6846067100232022542102F07EF931
:202D6000002328220C216F4802F078F9E16A2A2008560422694607F097FA0023282254216D
:202D8000684602F06BF9002330220C21664802F065F9E16A2B2008560422694607F084FA51
:202DA000002330225421684602F058F9EA00203204215E4801F0F4FEFFF700FCFFF7BAFBB1
:202DC000082810D018280ED0092849D0172847D0162875D00A2871D0192870D00B2895D115
:202DE000002003B0F0BD002D1CD0012D29D0022D8CD1E16A0B20203108566322D2439042F6
:202E000084DD0138C87206F0DBFE022800D27DE731200F21000106F011FF0F21002006F0E1
:202E20000DFF73E7E16A0920203108566322D2439042ECDD0138487206F0C2FE0228E6D348
:202E4000E6E7E06A0A21203041566322D2439142DDDD0139817206F0B3FE0228D7D3D7E7BC
:202E6000002D10D0012D1BD0022DD0D1E16A0B20203108566428CADA0130C87206F0A0FE08
:202E80000228C4D3C4E7E16A0920203108566428BDDA0130487206F093FE0228B7D3B7E7BC
:202EA000E06A0A21203041566429B0DA0131817206F086FE0228AAD3AAE701E01AE024E0E9
:202EC000002D04D0012D07D0022D0ED109E0E16A32202031487208E0E16A3220203188727D
:202EE00003E0E16A32202031C87206F069FE02288DD38DE7022D01D3002501E00135EDB28E
:202F000006F05EFE02288CD382E7012003B0F0BDD400002000000020A4CC0000AECC0000EE
:202F20003CCB0000B9CC0000C3CA0000F8CB0000F0B5894CB7B0E16A0027813134A809F0DB
:202F400057F88548FF22416A8448CB00C25400221818427010460192002913D934AD3C1CA1
:202F60002B5D7E4A6519C400165DB34207D1C046C046C046C046C0460130019002E001308C
:202F80008842F0D3FFF716FB75A003F0E7FE002402AE34AD211C685CFF280BD002B4784981
:202FA0000CF03EF802BC031C16E0C046C046C046C046C0461920604380196DA3621C6EA1DC
:202FC000FEF71AFD14E0C046C046C046C046C046C046C046C046C046C046C0461921C0466F
:202FE000C046204648438019621C66A1FEF704FD224608204243192060430A3280190023DD
:20300000192102F02BF80134062CC3D33A46082042430A320D215E4801F0C2FDFFF7CEFAB9
:20302000FFF788FA0A2823D008282CD018282AD0092852D0172850D0162870D019286DD0DF
:203040000B2800D07DE7002037B0F0BDC046C046C046C046C046C046C046C046C046C04619
:20306000C046C046C046C046C046C046C046C046052F01D3002000E0781C074606F0A0FDA4
:203080000228DFD355E0019800281AD0441E06F097FD022808D331200F21000106F0CEFD40
:2030A0000F21002006F0CAFD002C0AD02B48E10008182038027E391C6A54C046C046C0468C
:2030C0003FE72548254A406AC10088184378381C4419C046515C295433E71F490198496A79
:2030E00088420ED20130019006F06AFD022808D331200F21000106F0A1FD0F21002006F0A6
:203100009DFD0198C1001548091820390A7E381C2A54C046C046C04613E700E013E0FF218B
:20312000381C2954C046C046C04606F049FD022888D331200F21000106F080FD0F210020A6
:2031400006F07CFDFDE6044834A9C06A813008F04FFF012037B0F0BD00000020A401002039
:2031600043686F6F73652073656E736F727300004E6F6E650000000025753A2025730000A5
:2031800050FA000025753A202573000000000000F8CB0000FFFFFFFFFFFFFFFFFFFFFFFFA2
:2031A000FFFFFFFFFFFFFFFFFFFFFFFFFFFFFFFFFFFFFFFFFFFFFFFFF0B5002087B00546E0
:2031C0000390FFF7D1F9CE4CE16A8A7B0121914008427CD00126FFF7EDF9CA4803F0BEFDE6
:2031E000C94800231422082101F038FF2846C7493130887000231C220821C44801F02EFF89
:20320000002324220821C24801F028FFB600BC4F0496F86A032230184019C07B01A907F09B
:2032200043F800246846C47123462422302101A801F014FF00232C220821B64801F00EFF09
:20324000F86A17213018401941560422484201A907F02AF86846047200232C22282101A8A2
:2032600001F0FCFE03980021C2001C32AA4801F097FC08237F2219464920009401F006FE04
:203280007F223E2308211046009401F0FFFD3C237F2219464920009401F0F8FD4B223E231C
:2032A00008211046009401F0F1FD22237F2219464920009401F0EAFD65223E23082110469B
:2032C000009401F0E3FD002215214A2000E066E001F082FE00222F214A2001F07DFE0022C6
:2032E0003D21582001F078FE00223D21722001F073FEF86A30184119172008566221484376
:2033000001218903401800273C460590E0031A21FEF7A5FD059906F035FE1A21784A484365
:203320000499D26A89184919C97B48431921490406F022FF0646002C15D0002000906520B2
:20334000021B662033463946001B2233223101F09DFD0020009022202246831BC11B653219
:20336000501E01F093FD013437461A2CCED9FFF725F9FFF7DFF80A2819D008282CD0182857
:203380002AD009285ED017285CD0162873D0192872D00B2800D014E7002007B0F0BD0026BD
:2033A000FFF708F9574803F0D9FC5C4819E70398022801D3002000E00130039006F000FCBC
:2033C0000228E8D331200F21000106F037FC0F21002006F033FCF4E60398002813D001283F
:2033E00021D00228D7D146490498C96A40184119172008566228CEDC0230C87506F0E0FBF1
:203400000228C8D3DEE7032D07D0012DC3D1002506F0D6FB0228BED3D4E7012506F0D0FB10
:203420000228B8D3CEE736480499C06A08184019C17B0029AFD00139C17306F0C1FB022836
:20344000A9D3BFE70398002817D0012825D00228A1D12B480499C06A612208184019172178
:203460004156D243914296DB0239C17506F0A8FB022890D3A6E71FE03FE0002D07D0012DE8
:2034800089D1032506F09CFB022884D39AE7012506F096FB02289ED394E719480499C06A30
:2034A00008184119C87B642895D20130C87306F087FB02288FD385E7039801280FD00228B3
:2034C00089D1174804994019C27D0D48C06A08184019C27506F074FB022892D372E710482A
:2034E00004994019C27B0648C06A08184019C27306F066FB022884D364E7012007B0F0BDCB
:2035000000000020C2CC0000C9CA000005000020A4CA00008BCA0000F8CB0000F5CA000000
:2035200079D10000F0B583B0FFF744F800263046F400A41BA41B27460237630025003A00C1
:2035400002213E48C01801F02BFB00200635009039462B467E220A2001F05EFD002015228B
:2035600000902B463946104601F090FC0020442200902B463946104601F088FC0020732272
:2035800000902B463946104601F080FC2D4DB700E8592F2148432C4906F0EEFDE95944308F
:2035A000002902DA0546442201E0442502460020234605330090991E284601F059FB0136D1
:2035C0000A2EB4D3FEF7FAFFFEF7D4FFFF28ABD0FEF7B0FF092810D017280ED008281AD0E8
:2035E000182818D019281BD00A2801D00B289BD116490020087003B0F0BD06F0E1FA022883
:2036000092D331200F21000106F018FB0F21002006F014FB88E706F0D3FA0228FAD3F0E765
:203620000B4801680B4801220160084801785140017006F0C5FA0228ECD3E2E7A8E7000036
:2036400044CB0000E0FDFF1F1027000045010020B0F8FF1F5001002010B5FEF7ABFF1948C7
:2036600003F07CFB00230C220121194801F082FD002314224021144801F06CFD00231C22CB
:203680004021124801F066FD002328220121114801F070FD0023302240210F4801F05AFD60
:2036A0000023382240210D4801F054FDFEF786FFFEF740FF0A2803D0192801D00B28F7D1D5
:2036C000002010BD47CD000055CD000063CD000089EE00009FEE0000B5EE0000C2EE000040
:2036E000F0B5FFB0624882B0012181705AA867A9023000260D910C90FEF75CFF5DA003F0A3
:203700002DFB06F029FD5A480521446A201DFEF7A6FB029001380590864201D9029E013E3B
:20372000052C01D8002606E0864203D1B0003018241A00E00524FF22013252490EA8FEF7FE
:2037400025F906F025FD0025002C35D9B000301806904019C1000EA80F184EA808907978D0
:2037600038780D9A01F032FE38780CF0F7F901460898FEF777FA7A7843A101320C98FEF746
:203780003BF9EF000C3700233A4619464EA801F065FC00233A4632210C9801F05FFC002370
:2037A0003A4642210D9801F059FC0135A54203D20F2DFAD20698CCE70598864204D2002392
:2037C0003822602131A003E000233822602130A001F044FCFEF7F2FE2E4C276820687D2543
:2037E000C01BED00A84287D2FEF7C4FEFF2832D0FEF7A0FE092808D0082812D019282FD0F0
:203800000A282DD00B282BD025E0002E23D00298013E864200D9064606F0D2F9022808D29A
:2038200019E0059886420ED2013606F0C9F9022811D331200F21000106F000FA0F2100208B
:2038400006F0FCF907E00298864204D9064606F0B7F90228EDD22068C01BA842C4D34BE766
:203860000348002181707FB0084602B0F0BD00000000002053656E736F7273206C69737426
:2038800000000000A4010020257500003D3D3E0020202000B0F8FF1FF8B5894CE06A2030CF
:2038A000C07D800715D5FEF785FE864803F056FA002320224021844801F04CFCFEF77EFE95
:2038C000FEF738FE0A287CD019287AD00B28F7D177E063270025FF430426FEF76BFE794828
:2038E00003F03CFA002310221C21784801F0B6FBE06A2030C07D400701D5754800E075485D
:20390000002310225C2101F0A9FB002318221C2171A001F0A3FBE16A4A20085604226F4915
:2039200006F0C2FC002318223C216C4801F096FB002320221C216AA001F090FBE16A4B2005
:2039400008560422654906F0AFFC002320223C21624801F083FBEA0010321421614801F0BE
:203960001FF9E06A2030C07D40070AD40023302218215DA001F072FB0023382218215DA077
:2039800009E00023302208215DA001F067FB0023382208215EA001F061FBFEF70FFEFEF768
:2039A000C9FD08280FD018280DD0092834D0172832D0162857D00A286BD019287DD00B280C
:2039C0008BD10020F8BD002D0FD0012D17D0E16A0B2040310856B84200DC7EE70138C872A2
:2039E00006F0EEF80228F8D35CE0E06A2030C17D7140C17506F0E4F80228EED352E0E06AC2
:203A00000A2140304156B942E7DD0139817206F0D7F80228E1D345E0002D0ED0E16A012D3C
:203A200015D040310B2008566428D6DA0130C87206F0C6F80228D0D334E0E06A2030C17D93
:203A40007140C17506F0BCF80228C6D32AE040310A2008566428C0DA0130887206F0B0F820
:203A60000228BAD31EE0012D0AD0022DB5D1E16A32204031C87206F0A3F80228ADD311E060
:203A8000E16A32204031887206F09AF80228A4D308E0022D01D3002500E0013506F090F851
:203AA00002289AD331200F21000106F0C7F80F21002006F0C3F810E7FFE70120F8BD000084
:203AC00000000020FCCA0000D1CC000003CB000077CA000087CA0000434831006A000020BD
:203AE00043483200F8CB0000434831203C3D204348310000434832203C3D204348320000E2
:203B0000434831203C3D204348322B4348310000434832203C3D204348322D434831000070
:203B2000F0B55AA25168106889B0926804910592039059A1086849680025594F01910090B7
:203B4000FEF738FD574803F009F900242046313069468870E200103200230C21684601F002
:203B60007DFA0134062CF1D30024F86A660030184030807C032203A906F096FBF86A04A99C
:203B800030184030C07C0322013106F08DFBE200103200232C2103A801F060FA0134062C6B
:203BA000E3D36C08E2001032E80701D04C2100E024213D4800F0F4FFFEF700FD3B48A100E7
:203BC00042583B498A4201DA6D086D006908890041583848814201DD01200543FEF7CAFC66
:203BE000FF28ADD0FEF7A6FCE90705D06A08F96A52005118533104E06A08F96A520051183D
:203C00005231092810D017280ED008281FD018281DD0162825D00A282AD0192832D00B28D2
:203C20008ED1002009B0F0BD0878782888D20130087005F0C5FF022882D331200F210001C2
:203C400005F0FCFF0F21002005F0F8FF78E708780028FBD00138087005F0B2FF0228F5D31D
:203C6000EBE76420087005F0ABFF0228EED3E4E70A2D01D30A3D00E0023505F0A1FF0228F9
:203C8000E4D3DAE7012009B0F0BD00003130302520313030250000004368310000000000BD
:203CA00000000020E0CC0000F8CB000084FDFF1F78ECFFFF88130000F8B50646164C0698E0
:203CC000E660216163700127A060144DA770002A01D0277017E0E878800604D506F00EF964
:203CE000E8788006FAD4A87830210843A8703078C00704D0022020700020606104E02770EB
:203D00002069013020616761A878F7210840A87030782871F8BD0000140100200060064037
:203D20000E49002008700E48416B40221143416305200C490002086248620B481221417071
:203D4000C021817009488168090A09024031816007480168920011430160704714010020FC
:203D60000080044040D004400060064000E400E000E100E0F0B48C46002944D07125032193
:203D80004906224E014371601478D37821465478240221439478240421431B061943702313
:203DA000B16033708024347031780906FCD53178294202D0F0BC0220704701214906134E41
:203DC00001437160F101B16011780E46517809020E43917809040E43D17809060E430B4965
:203DE000CE600B700C700B781B06FCD50978294202D0F0BC03207047614604390432043097
:203E00008C460029BBD1F0BC0020704700000240F7B5054682B0A0202870080A6870174C88
:203E2000A9700026E670164F33463246022128460097FFF741FFE078002804D106F05EF898
:203E4000E0780028FAD02079002815D0E670A120287000231A46009728460499FFF72CFF7D
:203E6000E078002804D106F049F8E0780028FAD02079002800D0012005B0F0BD1401002023
:203E8000A5250000F7B582B004980D4600285DD0364C2846403080098001461B0498864207
:203EA00000D90646A02168460171290A417185710027E7702E48009001233A46022101A82D
:203EC000FFF7FAFEE078002804D106F017F8E0780028FAD02079002839D00020E0702448AA
:203EE00000900023012231460298FFF7E5FEE078002804D106F002F8E0780028FAD02079DA
:203F0000002824D01B4881690F020020E0701848002300901A46022101A8FFF7CDFEE0785F
:203F2000002804D105F0EAFFE0780028FAD0207900280ED00298AD19801902900498801BFB
:203F4000049005F0DBFF04980028A2D1012005B0F0BD084880690002391A0748814202D9C9
:203F6000002005B0F0BD05F0C9FFCEE714010020A525000000E000E000983A00F0B591B0D6
:203F8000FEF718FB2E4802F0E9FE0023102240212C4801F0DFF80023182240212A4801F0B7
:203FA000D9F8002320224021284801F0D3F8002328224021264801F0CDF800233022402176
:203FC000244801F0C7F8002338224021224801F0C1F8FEF7F3FAFEF7ADFA0B282CD00A28F4
:203FE000F9D1FEF707FA002824D005F0D5FB1B489222417A5143081819490A30C862FF22B3
:2040000040216846FDF702FF06F096F9154F0026350340352C46402221466846FFF732FFD0
:204020004034601BB842F6D306F086F90136042EEED3012011B0F0BD002011B0F0BD000012
:20404000EBCC0000F9CC000009CD000018CD000021CD000031CD00003CCD0000A40200206E
:2040600000000020740B0000F0B58BB00020CB4D0390FEF79FFACAA002F070FE082700244B
:20408000CAA2516810689268009002920191204631306946C87100233A460821684600F0BA
:2040A000DDFF687A922148434019610040187130C2788178100600140843BF49884204D102
:2040C00000233A465821BDA084E0BDA21168526804910592642106F04FF806B2002E46DA7D
:2040E0002D2069460874704206B230466330C7281AD364213046FDF7C0FE014630316846F6
:2041000041740A213046FDF7B8FE0E460A21FDF7B4FE30316846817431463031C174252123
:2041200001750021417551E030460930132812D30A213046FDF7A1FE0E460A21FDF79DFEF0
:204140003031684641743146303181742521C174002101753AE00A213046FDF78EFE303120
:2041600068464174252181740021C1742EE030466330C72808D364213046FDF77EFE0146B8
:20418000303168460174D3E730460930132812D30A213046FDF771FE0E460A21FDF76DFE30
:2041A000303168460174314630314174252181740021C1740AE00A213046FDF75EFE303121
:2041C0006A461174252050740020907400233A46582104A800F042FF08370134062C00D20C
:2041E0004EE700233A46082177A000F037FF012000903F2307220C21002000F039FD039837
:204200000021C2000832744800F0CAFCFEF7D6F9FEF790F9092811D017280FD0082820D07D
:2042200018281ED00A2826D016287DD019287CD00B2800D01DE700200BB0F0BD03980028BE
:20424000F8D00138039005F0BBFC0228F2D331200F21000105F0F2FC0F21002005F0EEFC9B
:2042600007E703980628E5D20130039005F0A8FC0228DFD3EBE705F0A3FC022808D33120DB
:204280000F21000105F0DAFC0F21002005F0D6FC0398062802D200F04DF9EAE6697A9222D1
:2042A000284651430A187132D37891781B061B140B4341498B4204D0484B1B6893701B0ADC
:2042C000D370427A92235A4312187132537914791B061B1423438B4204D0404B5B6813713E
:2042E0001B0A5371427A92235A4312187132D37994791B061B1423438B4204D0374B9B68C5
:2043000093711B0AD371427A92235A4312187132537A147A1B061B1423438B4207D02F4B26
:20432000DB6813721B0A01E024E033E05372427A92235A4312187132D37A947A1B061B144D
:2043400023438B4204D0254B1B6993721B0AD372427A92235A4350197130427B037B120688
:2043600012141A438A4298D01C4949690173090A41737EE605F024FC022808D331200F2135
:20438000000105F05BFC0F21002005F057FC00F027F86EE601200BB0F0BD0000A402002086
:2043A0004661696C73616665000000004368616E6E656C3100000000FF7F00004F4646009F
:2043C0002D31303025000000416C6C206368616E6E656C7300000000F8CB0000E0FDFF1FB7
:2043E000F8B531270024464D01263F01FEF7E2F844A002F0B3FC002310224021444800F014
:20440000A9FE002318224021424800F0A3FE002320224021404800F09DFE00232822402175
:204420003E4800F097FE002334221C213C4800F015FE002334224C213A4800F00FFE002CA3
:2044400001D0142100E044213422374800F0A8FBFEF7B4F8FEF76EF818280ED017280CD074
:2044600008280AD0092808D00A2814D00B28BDD16421284605F0E2FBF8BD744005F0A0FB94
:204480000228B3D30F21384605F0D8FB0F21002005F0D4FBAAE7012CEAD1254992234A7A82
:2044A00022485A43521871329070030AD3704A7A92235A43521871321071030A53714A7A5F
:2044C00092235A43521871329071030AD3714A7A92235A43521871321072030A53724A7AF0
:2044E00092235A43521871329072030AD3724A7A92235A43511871310873000A4873B7E70A
:204500000B0200004661696C736166650000000070CE000080CE00008CCE000095CE00002A
:204520008FCA00007DCA0000F8CB0000FF7F0000A4020020F0B55EA35A68196887B09B68B1
:2045400001915E49039302924A7A92235A4352184100049151187131CA788B78110609141E
:20456000574A1943914201D0012100E00021554C554F217101463131CAB200258600059239
:20458000FEF718F851A002F0E9FB2079002804D000231022382150A003E00023102234218F
:2045A0004EA000F05BFD69460598C87200232822202101A800F052FD3623722230210E203D
:2045C000009500F029FD1822362330211046009500F05CFC4022362330211046009500F032
:2045E00055FC6822362330211046009500F04EFCB859282148433A4905F0BEFD0246B859A0
:204600004032002802DA1046402200E0402034233221009500F02CFBFDF7D0FFFDF7AAFF76
:20462000FF28ADD0FDF786FF092811D017280FD008280DD018280BD00A281BD0192819D0BE
:204640000B289DD16421274805F0F8FA07B0F0BD207901214840207105F0B2FA02288FD379
:2046600031200F21000105F0E9FA0F21002005F0E5FA85E7207900280CD0B8590F49922395
:204680004A7A5A4352180499511871318870000AC870D7E709489223427A09495A431218D4
:2046A0000498101871308170090AC170CAE700004368616E6E656C3100000000A4020020FF
:2046C000FF7F000000000020E0FDFF1F4661696C73616665000000004F4E00004F464600AE
:2046E000102700000B02000038B5FDF763FF394802F034FB002310224021374800F02AFD45
:20470000002318224021354800F024FD002320224021334800F01EFD0023282240213148BA
:2047200000F018FD0023302240212F4800F012FD0023382240212D4800F00CFDFDF73EFFAB
:20474000FDF7F8FE0B2842D00A28F9D1FDF752FE00283DD0FDF72EFF1E4802F0FFFA002320
:2047600010224021224800F0F5FC002320224021204800F0EFFC0023282240211E4800F02E
:20478000E9FCFDF71BFF1E481C4901601D4941601D4C0325ED022846216805F041FC1B49E6
:2047A0004118009121684B1959781A7809021143814204D06A4604211846FFF7DBFABFF319
:2047C0004F8F14491248C860BFF34F8FFEE7002038BD000073CD000083CD000093CD0000A2
:2047E000A3CD0000B1CD0000C1CD0000CCCD0000D7CD0000E6CD0000F5CD0000C911E81AAF
:2048000000F8FF1FAC94557F88270000000055550400FA0500ED00E0F0B591B0FDF7CAFEA3
:20482000364802F09BFA002310224021344800F091FC002318224021324800F08BFC0023F2
:2048400020224021304800F085FC0023282240212E4800F07FFC0023302240212C4800F0E3
:2048600079FC0023382240212A4800F073FCFDF7A5FEFDF75FFE0B283DD00A28F9D1FDF7FC
:20488000B9FD002835D004F087FF23489222417A5143081821490A30C862FF22402168462F
:2048A000FDF7B4FA05F048FD1D4F0026350340352C46402221466846FFF7E4FA4034601B31
:2048C000B842F6D305F038FD0136042EEED300252E033446402221466846FFF7D3FA403443
:2048E000A01B2A28F6D305F027FD0135042DEFD3012011B0F0BD002011B0F0BDEBCC0000CC
:20490000F9CC000009CD000018CD000021CD000031CD00003CCD0000A4020020000000203C
:20492000740B0000F7B586B0002003900290FDF741FE069802F012FAFDF716FE8E49C96AF0
:2049400020310A7B0121914008427DD000230C2219468A4800F082FB079C0534884F002530
:2049600088480322405D3870605DB91C05F09CFCEA00002314321946814800F06FFB0135D3
:20498000052DEDD302980821C20014327E4800F007F9002734237B2208213720009700F082
:2049A0003BFB0823362219463520009700F06EFA00221321362000F00FFB1E237B221946B8
:2049C0003520009700F062FA00222921362000F003FB3423362219463520009700F056FAB5
:2049E0003722362335211046009700F04FFA00223521482000F0F0FA59223623352110464F
:204A0000009700F043FA002235216A2000F0E4FA7B22362335211046009700F037FA5B4EFF
:204A20000025601940782C214843642105F0A4FB3427381A0490605D2C214843642105F0DF
:204A40009BFB391A002700E032E0A8008219009752683058049B00F019FA0135042DE0D37C
:204A6000002548480023415D684601714771A80031583822033901A800F0F0FA0135052D36
:204A8000EFD3039A3423373200971046082100F0FDF9FDF793FD3E4881683E4808184421FD
:204AA00048433D4905F068FB002809DA00200AE000230C221946394800F0D0FA079C4DE7B6
:204AC000442800DD44200399814201D003902EE7FDF750FDFF28FAD0FDF72CFD0A2810D0F0
:204AE00008281AD0182818D0092822D0172820D016282AD019283BD00B28E8D1002009B0D9
:204B0000F0BD0298042801D3002000E00130029005F056F80228DAD320E00298205C002833
:204B2000D5D002990138605405F04AF80228CED314E00298205C6428C9D202990130605495
:204B400005F03EF80228C2D308E002990898415C0298215405F034F80228B8D331200F2145
:204B6000000105F06BF80F21002005F067F8DEE6012009B0F0BD00000000002034CB0000CE
:204B80007600002065000020F8CB0000E000002084FDFF1F10270000204E0000E7CA000042
:204BA000F7B5D017400F8018C108C900551A0122AA408AB0013A0492D24307920A9AC3103D
:204BC00097685268C0100732D2089A18013A01920090904247D80820401B039001990098F0
:204BE00088420FD10A98406841070BD04007400F401901218140049801394140C8430490D6
:204C0000000A079000980026C101184809180B980C180A98006800281DD920780499084086
:204C20003978A94008432070002D09D039780398079BC1402046803002781A40114301705B
:204C400001370134700701D105F058F90A9801360068B042E1D805F051F9009801990130CA
:204C600000908842BAD90DB0F0BD0000C0F8FF1FFFB5C8170D46400F4119C80885B0C000B3
:204C8000089B281AC3185F1BC9107E4BC901C918059B0E9CCE18012305998340511A0191DB
:204CA00001310091082F57DA089F00217D1B6F1CBC46002F15DD0127ED07FF07ED1901D0C2
:204CC000D9B2013063465F100BD001231D4685400D4301301946814029430130C9B2013FE0
:204CE000F4D10598101A0122C007D2078018002C02D0012C17D0BAE0009A002A7EDD013EC3
:204D0000002803D070780843707001360098401074D072780A437270B2780A43B270023638
:204D20000138F6D1A3E0C943009AC9B2002A65DD013E002803D0707808407070013600984A
:204D400040105BD072780A407270B2780A40B27002360138F6D18AE0680714D0013BD843E0
:204D6000C0B2012C01D1C043C0B200290BDD01990131002C20D03278012C21D04240327068
:204D800001360139F5D105F0B9F80020864684460735E817400F4019C3100598D901081833
:204DA00003900898FF220130C117490F0818C010C01A344D029020E0327802433270DFE70A
:204DC0000240DCE70098002810DD0199039B002001317344012C30D0002C33D01E187619BF
:204DE00037785740377001300139F3D1704680308646604601308446029800E037E060458E
:204E0000E0DC05F07BF820490898084007282ED00898C117490F0A18D010C0014119059866
:204E2000D20808180899D2008A1A0132012191400139C9B2012C09D00AE000261F187F19A1
:204E40003E70D0E71E1876193270CCE7C943C9B2009A002A0BDD019A0132002C0BD0037850
:204E6000012C0CD04B4003700130013AF5D105F045F809B0F0BD03780B430370F4E70B40FF
:204E8000F1E70000C0F8FF1F07000080FFB583B0039815461C46A84203DD049C0546039254
:204EA00004930498A0420BD1039CAC421CDC20460C9A049900F090F80134AC42F7DD13E071
:204EC0000398A842049813D1A04201DA054601E025460446A54207DC29460C9A039800F0C5
:204EE0007BF80135A542F7DD05F008F807B0F0BDA042039835DA07040498060403982A1AD9
:204F00000498211A8A4207DA1004FCF7B6FF013001900120000407E00120000401900804C1
:204F20001146FCF7AAFF01300090311438140C9A00F052F801980C9A3F18009836180120AF
:204F4000C003311838180914001400F045F804F0D5FF3814A842EDDB3014A042EADB07B02F
:204F6000F0BD070404981B490004461803982A1A0498011B8A4207DA1004FCF77EFF01301E
:204F800001900120000407E001200004019008041146FCF772FF01300090311438140C9AFF
:204FA00000F01AF801980C9A3F180098361A0120C003311A38180914001400F00DF804F0D8
:204FC0009DFF3814A842EDDB3014A042EADC07B0F0BD0000FFFF000030B4CB175B0F5B1846
:204FE000DD08ED004D1B0121A940DB10094CDB01181803191878002A05D0012A05D04840ED
:20500000187030BC70470843FAE78843187030BC70470000C0F8FF1FFFB581B01D460A9C7F
:2050200016460F460B4600940198FFF72FFF32462B46394610460094FFF728FF2B460094A9
:2050400019463046019AFFF721FF019A3B46009429461046FFF71AFF05B0F0BDFFB5D01749
:20506000400F1D468018C310384CDB011B19C0085918C000141A0120A04085B00138009059
:20508000C043039005980291007800282CD00820001B019005980078C1002D4809180298D4
:2050A0000822002D22D00378012D35D00E78A64073400370002C07D00E78019BDE400346DB
:2050C00080331F787E401E7001300131013AE8D102980830029005980130059004F00EFF1B
:2050E000059800780028D5D109B0F0BD0378009E33400E78A64033430370002CE4D00B7823
:20510000019E039FF34006468036B44636783E40334366463370D7E7009E33400E78F643A0
:20512000A64033430370002CCED00B78019EDB433341009E039F334006468036B4463678C5
:205140003E40334366463370BEE70000C0F8FF1F31DD0000F8B51D4616460C460746FCF785
:20516000A7FD8000211A2B4632463846FFF776FFF8BD0000F7B584B00498007800287AD0E3
:20518000D017400F8018C108C900511A0091C0105049C001401800990290C8B201300190CA
:2051A0000498062100784C4A41438B18059C029A0099C03B1219C9B2792801D10198C1B201
:2051C00000251E780124202710463E4205D0067827468F403E43067004E0077826468E40AF
:2051E000B74307701E78501C10273E4205D0067827468F403E43067004E0077826468E4062
:20520000B74307701E78013008273E4205D0067827468F403E43067004E0077826468E4084
:20522000B74307701E78013004273E4205D0067827468F403E43067004E0077826468E4068
:20524000B74307701E78013002273E4205D0067827468F403E43067004E0077826468E404A
:20526000B74307701E780130F607F60F067803D08C40264302E027E08C40A643013101336A
:20528000C9B20670082901D3002180320135062D97DB049800784138192804D8049840786C
:2052A0004138192812D90498407825280ED005980630059004980130049004F01FFE049854
:2052C0000078002800D06BE707B0F0BD05980730EFE70000C0F8FF1F31E50000F8B51D4602
:2052E00016460C460746FCF7E3FCC000211A2B4632463846FFF7B2FEF8BD00007C281DD093
:2053000008DC002814D0012810D002280CD0032808D10FE07D280FD07E2811D07F2811D008
:20532000FE2811D0094870470948704709487047094870470948704709487047094870472E
:2053400009487047094870470948704754D500000CD5000014D500001CD5000024D5000058
:205360002CD5000034D500003CD5000044D500004CD50000F7B50F46064604F0EDFE114853
:205380000024406A002816D90F4DE1006A5CB2420ED1C046C046C046C0460298002800D0A8
:2053A000046004F0F5FEE0004019408803B0F0BD01348442E9D304F0EBFE0120C00303B016
:2053C000F0BD000000000020A401002070B5154606460022FFF7CEFF04460120C003844296
:2053E00002D10020287070BD4D487C2E7BD008DC002E3ED0012E18D0022E10D0032E08D11A
:2054000037E07D2E4ED07E2E6BD07F2E31D0FE2E68D02246314628460AF0A8FB70BD224634
:2054200041A12846FCF7E8FA70BDFF20913084420DD220460A210930FCF711FD0922531A32
:205440000246283A3AA12846FCF7D6FA70BD0A212046FCF704FD20460E46FF380A219138FF
:20546000FCF70BFD0246334631A12846FCF7C4FA70BD20B200280BDA404200B26421FCF7C7
:20548000FCFC0B4602462CA12846FCF7B5FA70BD6421FCF7F2FC0B4602462AA12846FCF746
:2054A000ABFA70BD7C2E1ED0C06A0C21823041180A7810464A78120210438A7812041043B4
:2054C0002349FCF7CCFC044608467D21C900FCF7C6FC034622461FA12846FCF78DFA70BD6B
:2054E00001E00DE016E0C06A0821823041180A7810464A78120210438A7812041043DFE758
:205500000A212046FCF7ABFC024614A12846FCF773FA70BD224613A12846FCF76DFA70BD57
:205520000000002025750000257552504D00000025642E25752043002D25752E2530327583
:205540005600000025752E2530327556000000001027000025752E25754B6D0025754B6D38
:205560002F6800002575252500000000F8B500265B4C0127FDF71EF80025FCF7F5FFE16AAD
:2055800020310A7B39469140084200D00125554801F0E4FB0023182210215348FFF75EFDBE
:2055A000E06A2030C07D000701D5504800E05048002318224021FFF751FD0023202210218F
:2055C0004C48FFF74BFD002D01D04B4800E04B48002320224021FFF741FD0023282210215D
:2055E0004748FFF73BFDE06A032240192030807E444904F059FE0023282240214148FFF7B3
:205600002DFD3201183208213F48FFF7C9FAFCF7D5FFFCF78FFF08280FD018280DD00928D5
:205620002DD017282BD0162842D00A284FD0192853D00B289ED10020F8BDE06A002E0BD064
:2056400041192031887E002894D00138887604F0B7FA02288ED308E02030C17D0822514075
:20566000C17504F0ADFA022884D331200F21000104F0E4FA0F21002004F0E0FA7AE7E06ABB
:20568000002E0BD041192031887E6428F6D20130887604F095FA0228F0D3E6E72030C17D02
:2056A00008225140C17504F08BFA0228E6D3DCE7012EE3D11548E16A401920304919807E46
:2056C0002031887604F07CFA0228D7D3CDE77E4004F076FA0228D1D3C7E70120F8BD000015
:2056E0000000002005CE0000A9CA000077CA000087CA0000AECA000034CB0000E7CA00008A
:20570000CFCA000060000020F8CB000079D10000F0B42E48C17802221143C1702C490A46A2
:2057200013690F785578D6685C1E5269012F08D0022F29D0023B9A422FD18378082423434E
:2057400034E0C778FF0707D08378DF242340837000208870087014E09A4208D2A24203D1D3
:205760008378082423438370B35C037109E09A4207D100230B70002D03D18378DF24234089
:20578000837001324A6117E08278EF231A408270007903200870F0BC7047A24207D1002393
:2057A0000B70002D03D18378DF24234083700079B05448690130486108780028EBD18A68BB
:2057C000002AE8D08878F0BC104700000060064014010020F8B504460078FE280FDDC04682
:2057E000C046C046C046C046C046C046C046C046C046C046C046C046C046C04673E0534D62
:205800006278E96A8031CB799A4239D1022837D14F4F3868AA6A861AE078A2780002104395
:205820004A7A097A12020A4350436421FCF725FB7043484904F0A0FC0146E86A082282304C
:2058400083181E7832465E78360232439E78324352180272130A4372130C83720C22831804
:205860001E7832465E78360232439E7836043243511801730A0A42730A0C82733868A86277
:20588000324900204A6A3449002A2FD0D707FF0F002F0ED92378C6008D5DAB422BD3AB42EE
:2058A00004D1761865787678B54224D90130B842F1D3384697421ED22378C5004E5DB34290
:2058C00019D3B34204D16F1866787F78BE4212D96E18357AAB4205D3AB4209D16578767A3D
:2058E000B54205D800E030E0013004E00027E0E702309042E1D3C3005D18202825D2134E51
:20590000904202D30132726213E021782B78994203D161786B7899420BD0202A15D2101A2E
:20592000C200284629460830FCF725FA706A013070626078687020782870E078A17800024E
:2059400008436880024800686860F8BD00000020B0F8FF1F60EA0000A4010020F8B55748A4
:205960000125002485708027554EFCF723FE554801F0F4F9E003C30F0C22042152A0FFF71F
:205980006DFBA003C30F0C22242150A0FFF766FB6003C30F0C2244214DA0FFF75FFB200348
:2059A000C30F0C2264214BA0FFF758FBA006C30F1722042148A0FFF751FBE006C30F17223D
:2059C000242146A0FFF74AFB2007C30F1722442143A0FFF743FB6007C30F1722642141A0DB
:2059E000FFF73CFB2006C30F222204213EA0FFF735FB6006C30F222224213CA0FFF72EFB59
:205A0000A007C30F2222442139A0FFF727FBE307DB0F2222642137A0FFF720FBA005C30F77
:205A20002D22042134A0FFF719FBE005C30F2D221C2132A0FFF712FB6005C30F2D22442111
:205A400030A0FFF70BFB6002C30F2D225C212EA0FFF704FBE004C30F382202212CA0FFF7C2
:205A6000FDFA2005C30F382225212BA0FFF7F6FAA001C30F3822572129A0FFF7EFFAFCF707
:205A80009DFDFCF757FDB843294681400C433046A0430ED004F094F8022800D265E731205B
:205AA0000F21000104F0CAF80F21002004F0C6F85BE70248002181700120F8BD0000002069
:205AC000FF1F4F020FCE000053574100535742005357430053574400545235005452360011
:205AE00054523300545234005452370054523800545231005452320055500000444F574EAC
:205B0000000000004F4B00004D454E550000000042494E440000000043414E43454C0000F3
:205B2000454E544552000000F0B5404C83B0277A01260025FCF73EFD3D4801F00FF91E23A9
:205B4000542219212B200095FFF766FA302204213848FFF725F8302244213748FFF720F811
:205B6000207A00F0DFF9207A02221E3801A904F09BFB6846857100231022382101A8FFF78A
:205B80006DFA1D2353221A212C200096FFF770F8207A1E2807D94200113A1D231A212C205A
:205BA0000095FFF765F8FCF709FDFCF7C3FC082814D0182812D0092823D0172821D016288A
:205BC00029D00A282ED019282CD00B28B2D13846277200F0A7F9002003B0F0BD207A1E28A2
:205BE000A8D90138207203F0EBFF0228A2D331200F21000104F022F80F21002004F01EF8F3
:205C000098E7207A322895D20130207203F0D8FF02288FD3EBE72820207203F0D1FF0228F8
:205C200088D3E4E7012003B0F0BD0000A402002018CE000098CB00008CCB000008B500207A
:205C40003F237F2201460090FFF712F8FCF7B6FCFCF770FC0A2803D0192801D00B28F7D154
:205C600064210B4803F0EAFF0120002100903F237F220846FEF7FCFFFCF7A0FCFCF75AFC85
:205C80000A2803D0192801D00B28F7D1012008BD1704000070B504460C480E4AC1798079A3
:205CA000090201430A4880695043FCF7D8F80A4D01210A4A0A4BA84204D3002C02D0516072
:205CC000197070BD91600020187070BD380E0020000F002010270000B80B000040F00F403A
:205CE00080F8FF1F10B5012189020348FCF7B3F804F004F910BD0000C0F8FF1FF8B57749B2
:205D00000A6977480240FF3201320A61754AD269744B0240FF320132DA614A6B0240FF327E
:205D200001324A637049C96B6F4A0140FF310131D163916B0140FF31013191639168014039
:205D4000FF3101319160D1680140FF310131D16011690140FF310131116151690140FF3129
:205D60000131516161490A6A0240FF3201320A624A6A0240FF3201324A628A6A0240FF32A2
:205D800001328A62CA6A0240FF320132CA62584E7069584908437061574C6069802108434A
:205DA0006061564D68691F0438436861544841690F2212021143416168699102084368614E
:205DC0005048524AC1798079090201434E4880695043FCF744F84E4A4E49904204D24E4A5D
:205DE00001209060002002E04B4A0120506008704048B0608026A660AF60052004F05EF9EF
:205E00006660052004F05AF90021E22000F0C0F80021AE2000F0BCF80021A12000F0B8F870
:205E20000021A62000F0B4F80021A42000F0B0F80021A22000F0ACF80021C02000F0A8F85A
:205E400000212F2000F0A4F80021242000F0A0F828240021812000F09BF80021204600F051
:205E600097F80021AF2000F093F8F1002B48FBF7F2FF04F043F8294F0026B0203043C0B25F
:205E8000002100F085F8F001C5190021042000F07FF80021102000F07BF80424287801215B
:205EA00000F076F80135200701D104F027F80134842CF3DB0136082EDFDB04F01FF81849FC
:205EC0000868072212029043FF3001300860124841690122114341611046F8BD009004407E
:205EE000F8F8FFFF00C0044040D0044000B0044000F00F4010200000C0F00F4000F10F40BA
:205F000080F00F40380E0020000F002010270000B80B000080F8FF1F40F00F40C0F8FF1F48
:205F200000A0044010B504460021812000F030F80021204600F02CF810BD0000F8B5002659
:205F4000B02730463843C0B2002100F021F80F48F1010D180021042000F01AF800211020D7
:205F600000F016F804242878012100F011F80135200701D103F0C2FF0134842CF3DB013673
:205F8000082EDEDB03F0BAFFF8BD0000C0F8FF1FF8B5074601204003174D002901D0686057
:205FA00000E0A8600120154CC007A0601026AE6004F0D2F820680F21890488433907890ACB
:205FC0000843206004F0E4F804F0C6F80C4908680F22120290433A0912021043086004F091
:205FE000D7F8A10561600020009001300090FCD0A1606E60F8BD000000F00F4000F10F402B
:2060000080F00F40F8B50025264E274F2C46009521034031254A2648FDF7FAFE002813D095
:206020002449234803F0FCFF718888420CD1204801210068C907884206D2A1007850A84243
:2060400006D90546009403E00020C043A100785004F072F90134042CDAD3002D15D00098F8
:20606000124A010340311248FDF7D2FE00280CD010490F4803F0D4FF7188884205D10C48CA
:2060800001680120C007814201D303F085FB08489222417A5143081807490A30C86204F08A
:2060A0004BF9F8BD140E0020D40E0020740B0000A4020020720B000000000020F0B52B48A9
:2060C00089B0002505602A49681E086029480078002849D0284F01263E709B206946274C49
:2060E0000870607A92214843001961300C2141180A7810464A78120210438A78C978120486
:2061000010430906084369464870020A8A70020CCA70000E0871684602F022F89A2001F031
:20612000FBFF3D70164F387801281DD115484565627A92235A4300211619134B71360122DF
:206140003A701C681A68121B322A0AD27278357812022A43456DAA4206D01D682D1B322D72
:20616000F8D301310529EAD309B0F0BD4001002084F8FF1F3C0100203E010020A402002054
:206180003F01002000000020B0F8FF1F124802681249142A06D902680B6CD21A7D231B01F4
:2061A0009A4218D308B5006808640D480E4AC18C0C488069504303F0DFFF7F2269460A7022
:2061C00000224A700A2103F0D7FF694648806846FFF700FB08BD7047B0F8FF1F0000002077
:2061E000180E0020000F002010270000F8B54F4C2068642871D34E484F4AC18C4D48806959
:20620000504303F0B9FF7D214901CF104B4D884216D203F0D5FC0F2827D12068A96B401A46
:20622000B84222D32068A86303F0CAFC02281CD3FA21434803F002FDFA213120400112E0D3
:206240004049884211D22068A96B411A7D20000181420AD32068A86364213B4803F0EEFC5B
:20626000FF20FA21733003F0E9FC384E366860363078002858D02068E969401A7D21C9001C
:20628000884251D2B0788007C00F002803D000220121032002E0002211461046FFF76AF828
:2062A00000B2F18A884219D2002817D003F088FC0F2839D12068E96B401AB84234D3206876
:2062C000E86303F07DFC02282ED3FA211C4803F0B5FCFA213120400124E025E0B078800754
:2062E000C00F002803D000220121032002E0002211461046FFF73EF800B2318B884213D273
:20630000002811D02068E96B411A7D20000181420AD32068E86364210B4803F08FFCFF20B7
:20632000FA21733003F08AFCF8BD0000B0F8FF1F180E0020000F00201027000000000020DF
:2063400017040000681000000B0200002C000020F8B5104D0024686A002819D90E4F0F4E7D
:20636000E000801941683A68521A7D2109018A420AD9696A091BCA000146083A0831FBF721
:20638000FAFC686A01386862686A01348442E7D3F8BD000000000020B0F8FF1FA40100204B
:2063A000F0B50446764885B001687648012241612178601CA52902D0AA2911D0D9E0714933
:2063C000CA70011D0A7810464A78120210438A78C97812041043090608436B490860C5E09D
:2063E0004178037809021943684B994202D168480270BBE0674A914206D1C178827808024C
:20640000604910434865B1E0634A91420BD1C17882780B025B4913430B63427903791002F5
:2064200018434863A2E05D4FA278381FA11CFF2A07D062780271A2784271E27882712279F8
:20644000C2710430012203250B79FF2B09D093001B195E7806719E784671DE7886711B7941
:20646000C37108310B78FF2B09D093001B195E7906729E794672DE7986721B7AC3720830F3
:206480000232013DE0D13F48016A002905D03C4A1268511A424A914268D9016D01310165D8
:2064A000082904D300210165354909680162AE00F0190090FFF78EF932488722C16A525C3B
:2064C000FF2A4BD0BB5D022B48D1009B5B78934244D17C266A4616710646823108205371FE
:2064E00009180A7810464A78120210438A78C97812041043090608436A46D08001A8FFF7D5
:2065000069F97D206A461071F06A0C21823041180A7810464A78120210438A78C97812045F
:206520001043090608436A46D08001A8FFF752F97E206A461071F16A009880314A7A0B7A08
:20654000408811021943484306214843154903F013FE6A46D08001A8FFF73CF90135072D27
:20656000A5D3FF221C210D48FBF750FC2078A52804D00348006803490138C86105B0F0BDB6
:20658000B0F8FF1F0000002084F8FF1FFCFF00003F010020FDFF0000FEFF0000E40E002015
:2065A000DC05000010270000F0B5AC4E36686036B7B03078002849D0A9480068A94D00272A
:2065C000E969411A7D20C000814240D2B478A407E40F002C1ED002223B21A4A0FEF7CAFD78
:2065E000002201210320FEF7C5FE00B2748BA0422EDC002201210320FEF7BCFE00B2F48A99
:20660000A04225DB002201210320FEF7B3FE00B204461DE002223B2195A0FEF7ABFD00221E
:2066200011461046FEF7A6FE748BA04210D8002211461046FEF79EFEF48AA04208D300228E
:2066400011461046FEF796FE044601E097E03EE0308BA04209D382487D2109010068FBF7FF
:20666000FEFB7D20C000814231D2012242217E48FEF796FA718BF08A1322091A201A504392
:20668000FBF7FBFB024642320723022143200097FEF7EEFA0124462206230221104600946F
:2066A000FEF7E6FA4B220623022110460094FEF7DFFA50220623022110460094FEF7D8FA25
:2066C00055220623022110460094FEF7D1FAE96A012080314A78FF2A00D00020CA78FF2AE2
:2066E00000D00020497910AE0236FF294FD100284DD000241DA901311DA8029101905948BF
:20670000406A844238D25B48E5002F1804A80090324679783878FEF759FE387809F01EFACE
:2067200001460098FBF79EFA00967B7804AA013351A10198FBF760F90198FBF7B9FA0D283C
:206740001FD94C48405D02280FD02A46233200230C210198FEF782FC00207A22009039233E
:2067600021211046FEF758FC06E02A462332002310210298FEF772FC0134032CBFD337B05F
:20678000F0BD2A462332002310210198F2E70024E86AC046271881373878FF2852D0C0464F
:2067A0003246FEF713FE3878C046354908F038FCC046021C0DE0C046C046C046C046C046CC
:2067C000C046C046C046C046C046C046C046C046C0460096331C28A1C04604A8FBF70CF92C
:2067E00004A8FBF765FA0D2831D93878022821D0E2000B320023092104A8FEF7BBFC0020AE
:206800007A220090392321211046FEF705FC19E0C046C046C046C046C046C046C046C04639
:20682000C046C046C046C046C046C046C046C046C046C046E20004A80B32002309210130D3
:20684000FEF798FC0134062CA2D337B0F0BDE2000B320023092104A8F2E700002C00002002
:20686000B0F8FF1F00000020B0CB00004558000052000000A401002025733A257300000099
:2068800050FA0000FFFFFFFFFFFFFFFFFFFFFFFFFFFFFFFFFFFFFFFFFFFFFFFFFFFFFFFFCA
:2068A000FFFFFFFFFFFFFFFFF0B571497C2009680024401A4508281D83B026460F18FBF7AC
:2068C00079FEFBF777FE6A48019002236A1E012100960020FEF7CCF906236A1E0521002061
:2068E0000096FEF7C5F90A236A1E092100200096FEF7BEF90022A91C0198FEF751F902232A
:206900007F22012138460096FEF7B2F906237F22052138460096FEF7ABF90A237F2209216B
:2069200038460096FEF7A4F912221A215148FEF737F9122248215048FEF732F9002C01D032
:20694000012000E00020009035233B220E211620FEF762FB002C01D0012000E0002000906C
:2069600034233A220F211720FEF756FB012C01D0012000E000200090352369220E21442092
:20698000FEF74AFB012C01D0012000E000200090342368220F214520FEF73EFB002C2ED040
:2069A0000023382240213548FEF7D4FBFBF706FEFBF7C0FD0B2827D0092830D008282ED08A
:2069C0000A2800D07BE703F0FBF8022808D331200F21000103F032F90F21002003F02EF95E
:2069E000002C2CD02648C06A407A00282BD001282FD8244A0B21244800F056F85FE700231D
:206A0000382240212148CFE731204B21000103F015F94B211E4803F011F903B0F0BD01208D
:206A2000444003F0CDF80228CCD331200F21000103F004F90F21002003F000F93FE7154A1E
:206A40000E21154802E0154A0C210F4800F02CF835E7022805D8124A0C210B4800F024F8C6
:206A60002DE7104A0D21084800F01EF827E70000BCCB0000D4CB0000ECCB000034CE000037
:206A80000000002068D30000E0CB000027CE00000B02000088D40000C8CB000008D3000024
:206AA000C0D3000020D40000F7B584B0002001900598164601380390984800258570FBF70D
:206AC00079FD049F7C2039680223401A4408621E012100200095FEF7CBF80623621E0521B7
:206AE00000200095FEF7C4F80A23621E092100200095FEF7BDF80022A11C3846FEF750F860
:206B000038680434041902237F22012120460095FEF7AEF806237F22052120460095FEF722
:206B2000A7F80A237F22092120460095FEF7A0F806210198FBF793F906214843441D029053
:206B40000598844200D3441E029D1027A5420AD8E800305800233A460821FEF77FFA083715
:206B60000135A542F4D9012000903F23072210210020FEF77DF802990198401AC2001032A2
:206B800000216748FEF70CF8FBF718FDFBF7D2FC082812D0182810D0092821D017281FD0E3
:206BA0000A2827D00B2887D15C490120887064215C4803F043F807B0F0BD039901988842A9
:206BC00000D379E70130019002F0FAFF0228F8D331200F21000103F031F80F2100208AE088
:206BE00001980028EDD00138019002F0E9FF0228E7D3EDE702F0E4FF022808D331200F2160
:206C0000000103F01BF80F21002003F017F80198002847D14448864244D144489222417ADE
:206C2000514308186030807A00283BD0404801683A48C069091A7D20C000814232D20024DC
:206C4000FBF7B8FC0023082240213A48FEF782FA0023102240213848FEF77CFA00231822EF
:206C600040213648FEF776FA0023202240213448FEF770FA0023302240213248FEF76AFA86
:206C80003A2350222C2130200094FEF7C5F9FBF795FCFBF74FFC0A2801D00B28D0D1642125
:206CA000204828E0214C9221607A9222484301190A312548FBF71EF80198C000851968689A
:206CC000804700281AD003F06FFF2048864210D128211F4803F0A4F91D49002408852103EE
:206CE0002A221B48FDF7CEF803F026FB0134042CF5D36421174802F0A1FFDDE61648696882
:206D00008142FAD0607A9221484300190A460A300D49FAF7EFFF64210248ECE70000002034
:206D2000F8CB00000B02000088D40000A4020020B0F8FF1F44CE000053CE000063CE000037
:206D4000D5CA00007ACA0000420E002048D20000180E002017040000B1910000F8B506462A
:206D6000FAF7A6FF10282DD2C0007C21081A440800250223621E012128460095FDF778FF21
:206D80000623621E052100200095FDF771FF00231A46A11C3046FEF761F93046FAF788FF18
:206DA000C0000419043402237F22012120460095FDF75EFF06237F22052120460095FDF7AB
:206DC00057FFF8BD00231A4619463046FEF746F9F8BD0000F7B584B00020019005981646DD
:206DE00001380390734900208870FBF7E3FB0498FFF7B4FF06210198FBF731F80621484351
:206E000002906D489222417A514308186030807A00281ED0029C05340598844200D3441EF9
:206E2000029D0D27A5420AD8E800305800233A460821FEF713F908370135A542F4D95E4CA6
:206E40009221607A484300196030807A002802D009E00024E0E701200090152348220D2128
:206E60003820FDF705FF012000903F2307220D210020FDF7FDFE02990198401AC2000D32BA
:206E800000214E48FDF78CFEFBF798FBFBF752FB092812D0172810D008281FD018281DD07B
:206EA0000A282FD00B289DD16421454802F0C6FE40490120887007B0F0BD0198002891D010
:206EC0000138019002F07CFE02288BD331200F21000102F0B3FE0F21002067E0607A9221AB
:206EE000484300196030807A0028E8D001990398814200D376E7481C019002F061FE0228EC
:206F0000F8D3E3E701982F4FC00085196868B8420FD02D4988420CD002F052FE022808D35B
